:100000000C9434000C94AF010C94A9000C94510092
:100010000C9451000C9453000C9451000C9451001A
:100020000C9451000C9451000C9451000C9451000C
:100030000C9451000C9451000C9451000C94FF004E
:100040000C9451000C9451000C9451000C945100EC
:100050000C9451000C9451000C9451000C945100DC
:100060000C9451000C94510011241FBECFEFD8E026
:10007000DEBFCDBF11E0A0E0B1E0E4EAF4E002C0F1
:1000800005900D92A830B107D9F711E0A8E0B1E0D2
:1000900001C01D92AC31B107E1F70E94D3010C946D
:1000A00050020C9400001F920F920FB60F92112471
:1000B0002F933F934F935F936F937F938F939F9370
:1000C000AF93BF9389B1807190E02091120130917C
:1000D00013012817390771F1009719F022E030E079
:1000E00002C021E030E030930101209300019093A1
:1000F00013018093120180910401909105012091D8
:100100000001309101014091020150910301220F41
:10011000331F249FB001259F700D349F700D112453
:100120000E942802709389006093880010928500D5
:1001300010928400BF91AF919F918F917F916F91A9
:100140005F914F913F912F910F900FBE0F901F9095
:1001500018951F920F920FB60F9211242F933F9371
:100160004F935F936F937F938F939F93AF93BF93BF
:1001700089B1887090E02091100130911101281709
:10018000390771F1009719F023E030E002C021E057
:1001900030E030930301209302019093110180938A
:1001A000100180910401909105012091000130918E
:1001B00001014091020150910301220F331F249F3E
:1001C000B001259F700D349F700D11240E942802EC
:1001D00070938900609388001092850010928400CB
:1001E000BF91AF919F918F917F916F915F914F914F
:1001F0003F912F910F900FBE0F901F9018951F9257
:100200000F920FB60F9211242F933F934F935F934A
:100210006F937F938F939F93AF93BF93EF93FF93CE
:1002200080910C0190910D01019690930D018093A6
:100230000C0180910E0190910F01892B09F470C07F
:1002400080910C0190910D0105970CF469C01092FA
:100250000F0110920E014A9B63C0E0910801F091DA
:10026000090180910A0190910B0160910C0170913C
:100270000D0120E034EC629FA001639F500D729F3E
:10028000500D1124840F951FEE0FFF1FEC5EFE4FE3
:100290009183808380910801909109010196909348
:1002A00009018093080180910A0190910B016091EE
:1002B0000C0170910D01629FA001639F500D729F10
:1002C000500D1124840F951F909305018093040114
:1002D00010920D0110920C01809104019091050182
:1002E00020910001309101014091020150910301E0
:1002F000220F331F249FB001259F700D349F700D76
:1003000011240E9428027093890060938800109243
:100310008500109284008BB180588BB985B185B966
:10032000FF91EF91BF91AF919F918F917F916F91CD
:100330005F914F913F912F910F900FBE0F901F90A3
:10034000189581E090E090930F0180930E0186B59F
:1003500090E090930B0180930A0116BC08951F92C0
:100360000F920FB60F9211242F933F934F935F93E9
:100370006F937F938F939F93AF93BF93EF93FF936D
:100380000E94A101FF91EF91BF91AF919F918F9139
:100390007F916F915F914F913F912F910F900FBE81
:1003A0000F901F90189588B5806288BD80916E006F
:1003B000846080936E0085B5886085BD85B5816059
:1003C00085BD80910401909105012091000130913B
:1003D00001014091020150910301220F331F220FAE
:1003E000331F249FB001259F700D349F700D112481
:1003F0000E94280270938900609388008091800099
:10040000806480938000809181008360809381006C
:1004100080918100886080938100219A289A8AB116
:10042000836E8AB98BB18BB98DB383608DBB80919C
:10043000690085608093690080916D008061809380
:100440006D00809168008460809368007894FFCF8D
:1004500097FB072E16F4009407D077FD09D00E9471
:100460003C0207FC05D03EF4909581959F4F08957E
:10047000709561957F4F0895AA1BBB1B51E107C082
:10048000AA1FBB1FA617B70710F0A61BB70B881F24
:10049000991F5A95A9F780959095BC01CD010895B3
:0404A000F894FFCFFE
:0804A40001000100983A204E0E
:00000001FF
